:020000040800F2
:1000000000500020990F0008D10E0008D70E0008FC
:10001000DD0E0008E30E0008E90E000800000000F5
:10002000000000000000000000000000EF0E0008CB
:10003000FB0E000800000000070F0008130F000867
:10004000E10F0008E10F0008E10F0008E10F0008D0
:10005000E10F0008E10F0008E10F0008E10F0008C0
:10006000E10F0008E10F0008E10F0008E10F0008B0
:10007000E10F0008E10F0008E10F0008E10F0008A0
:10008000E10F0008E10F0008E10F0008E10F000890
:10009000E10F0008E10F0008E10F0008E10F000880
:1000A000E10F0008E10F0008E10F0008E10F000870
:1000B000E10F0008E10F0008E10F0008E10F000860
:1000C000E10F0008E10F0008E10F0008E10F000850
:1000D000E10F0008E10F0008E10F0008E10F000840
:1000E000E10F0008E10F0008E10F00080000000028
:1000F0000000000000000000000000000000000000
:0C01000000000000000000005FF808F1A3
:1001100010B5054C237833B9044B13B10448AFF341
:1001200000800123237010BD90000020000000001B
:10013000783A000808B5034B1BB103490348AFF3F5
:10014000008008BD0000000094000020783A0008FC
:10015000034613F8012B002AFBD1181A0138704707
:1001600081F0004102E000BF83F0004330B54FEA68
:1001700041044FEA430594EA050F08BF90EA020FD5
:100180001FBF54EA000C55EA020C7FEA645C7FEA68
:10019000655C00F0E2804FEA5454D4EB5555B8BF8B
:1001A0006D420CDD2C4480EA020281EA030382EAFC
:1001B000000083EA010180EA020281EA0303362D8E
:1001C00088BF30BD11F0004F4FEA01314FF4801C61
:1001D0004CEA113102D0404261EB410113F0004F73
:1001E0004FEA03334CEA133302D0524263EB43032A
:1001F00094EA050F00F0A780A4F10104D5F1200EC8
:100200000DDB02FA0EFC22FA05F2801841F1000122
:1002100003FA0EF2801843FA05F359410EE0A5F1F6
:1002200020050EF1200E012A03FA0EFC28BF4CF027
:10023000020C43FA05F3C01851EBE37101F00045DD
:1002400007D54FF0000EDCF1000C7EEB00006EEBEA
:100250000101B1F5801F1BD3B1F5001F0CD3490874
:100260005FEA30004FEA3C0C04F101044FEA4452CB
:1002700012F5800F80F09A80BCF1004F08BF5FEA52
:10028000500C50F1000041EB045141EA050130BD32
:100290005FEA4C0C404141EB0101013C28BFB1F544
:1002A000801FE9D291F0000F04BF01460020B1FA8F
:1002B00081F308BF2033A3F10B03B3F120020CDA62
:1002C0000C3208DD02F1140CC2F10C0201FA0CF040
:1002D00021FA02F10CE002F11402D8BFC2F1200CA5
:1002E00001FA02F120FA0CFCDCBF41EA0C0190405B
:1002F000E41AA2BF01EB0451294330BD6FEA0404A4
:100300001F3C1CDA0C340EDC04F11404C4F120028E
:1003100020FA04F001FA02F340EA030021FA04F3A0
:1003200045EA030130BDC4F10C04C4F1200220FAF7
:1003300002F001FA04F340EA0300294630BD21FA35
:1003400004F0294630BD94F0000F83F4801306BFFB
:1003500081F480110134013D4EE77FEA645C18BFEF
:100360007FEA655C29D094EA050F08BF90EA020F86
:1003700005D054EA000C04BF1946104630BD91EA7E
:10038000030F1EBF0021002030BD5FEA545C05D181
:100390004000494128BF41F0004130BD14F58004C0
:1003A0003CBF01F5801130BD01F0004545F0FE4134
:1003B00041F470014FF0000030BD7FEA645C1ABF69
:1003C000194610467FEA655C1CBF0B46024650EAA0
:1003D000013406BF52EA033591EA030F41F40021CC
:1003E00030BD00BF90F0000F04BF0021704730B552
:1003F0004FF4806404F132044FF000054FF0000127
:1004000050E700BF90F0000F04BF0021704730B5E7
:100410004FF4806404F1320410F0004548BF4042BC
:100420004FF000013EE700BF42004FEAE2014FEA11
:1004300031014FEA02701FBF12F07F4393F07F4FEC
:1004400081F06051704732F07F4208BF704793F0EF
:100450007F4F04BF41F40021704730B54FF4607402
:1004600001F0004521F000411CE700BF50EA010205
:1004700008BF704730B54FF000050AE050EA0102AE
:1004800008BF704730B511F0004502D5404261EB1E
:1004900041014FF4806404F132045FEA915C3FF45F
:1004A000D8AE4FF003025FEADC0C18BF03325FEAFC
:1004B000DC0C18BF033202EBDC02C2F1200300FAAD
:1004C00003FC20FA02F001FA03FE40EA0E0021FAD2
:1004D00002F11444BDE600BF70B54FF0FF0C4CF4C0
:1004E000E06C1CEA11541DBF1CEA135594EA0C0F72
:1004F00095EA0C0F00F0DEF82C4481EA030621EAAD
:100500004C5123EA4C5350EA013518BF52EA0335E7
:1005100041F4801143F4801338D0A0FB02CE4FF099
:100520000005E1FB02E506F00042E0FB03E54FF0C9
:100530000006E1FB03569CF0000F18BF4EF0010EC1
:10054000A4F1FF04B6F5007F64F5407404D25FEABD
:100550004E0E6D4146EB060642EAC62141EA555170
:100560004FEAC52040EA5E504FEACE2EB4F1FD0CB2
:1005700088BFBCF5E06F1ED8BEF1004F08BF5FEA30
:10058000500E50F1000041EB045170BD06F00046E2
:1005900046EA010140EA020081EA0301B4EB5C048F
:1005A000C2BFD4EB0C0541EA045170BD41F4801187
:1005B0004FF0000E013C00F3AB8014F1360FDEBFAC
:1005C000002001F0004170BDC4F10004203C35DA88
:1005D0000C341BDC04F11404C4F1200500FA05F30B
:1005E00020FA04F001FA05F240EA020001F00042AC
:1005F00021F0004110EBD37021FA04F642EB060122
:100600005EEA430E08BF20EAD37070BDC4F10C044B
:10061000C4F1200500FA04F320FA05F001FA04F20F
:1006200040EA020001F0004110EBD37041F10001FB
:100630005EEA430E08BF20EAD37070BDC4F1200506
:1006400000FA05F24EEA020E20FA04F301FA05F26E
:1006500043EA020321FA04F001F0004121FA04F216
:1006600020EA020000EBD3705EEA430E08BF20EAE6
:10067000D37070BD94F0000F0FD101F00046400020
:1006800041EB010111F4801F08BF013CF7D041EAA2
:10069000060195F0000F18BF704703F000465200A6
:1006A00043EB030313F4801F08BF013DF7D043EA77
:1006B0000603704794EA0C0F0CEA135518BF95EA2D
:1006C0000C0F0CD050EA410618BF52EA4306D1D1B4
:1006D00081EA030101F000414FF0000070BD50EAD3
:1006E000410606BF1046194652EA430619D094EA5D
:1006F0000C0F02D150EA013613D195EA0C0F05D147
:1007000052EA03361CBF104619460AD181EA03019A
:1007100001F0004141F0FE4141F470014FF0000052
:1007200070BD41F0FE4141F4780170BD70B54FF0ED
:10073000FF0C4CF4E06C1CEA11541DBF1CEA13556D
:1007400094EA0C0F95EA0C0F00F0A7F8A4EB05044F
:1007500081EA030E52EA03354FEA013100F0888046
:100760004FEA03334FF0805545EA131343EA12630F
:100770004FEA022245EA111545EA10654FEA0026C4
:100780000EF000419D4208BF964244F1FD0404F57D
:10079000407402D25B084FEA3202B61A65EB0305D9
:1007A0005B084FEA32024FF480104FF4002CB6EB96
:1007B000020E75EB030E22BFB61A754640EA0C0016
:1007C0005B084FEA3202B6EB020E75EB030E22BF56
:1007D000B61A754640EA5C005B084FEA3202B6EB97
:1007E000020E75EB030E22BFB61A754640EA9C0056
:1007F0005B084FEA3202B6EB020E75EB030E22BF26
:10080000B61A754640EADC0055EA060E18D04FEAE3
:10081000051545EA16754FEA06164FEAC30343EA83
:1008200052734FEAC2025FEA1C1CC0D111F4801F50
:100830000BD141EA00014FF000004FF0004CB6E749
:1008400011F4801F04BF01430020B4F1FD0C88BFE8
:10085000BCF5E06F3FF6AFAEB5EB030C04BFB6EBF3
:10086000020C5FEA500C50F1000041EB045170BDE6
:100870000EF0004E4EEA113114EB5C04C2BFD4EB13
:100880000C0541EA045170BD41F480114FF0000E97
:10089000013C90E645EA060E8DE60CEA135594EA13
:1008A0000C0F08BF95EA0C0F3FF43BAF94EA0C0F16
:1008B0000AD150EA01347FF434AF95EA0C0F7FF48B
:1008C00025AF104619462CE795EA0C0F06D152EADF
:1008D00003353FF4FDAE1046194622E750EA4106C3
:1008E00018BF52EA43067FF4C5AE50EA41047FF4D4
:1008F0000DAF52EA43057FF4EBAE12E74A0011D286
:1009000012F5001211D20DD56FF47873B3EB625269
:100910000ED44FEAC12343F0004343EA505323FA75
:1009200002F070474FF00000704750EA013002D1EA
:100930004FF0FF3070474FF00000704780B584B033
:1009400002AF00F07FFB00F079F800F0AFF900F0A3
:10095000BBF800F059F900220221304802F0A2FA57
:100960002F4802F0C7FB0346DBB200932C4B00225A
:1009700000212A4802F051FB3C212A4801F03CFCAE
:100980000021294801F0F4FA274B1B6840F2DC52A1
:100990005A6340F6B83000F0B7FB224B1B685B6A25
:1009A000FB71FB791846FFF72DFD4FF000021F4B3E
:1009B000FFF792FD02460B46104619464FF0000223
:1009C0001B4BFFF7B3FE02460B4610461946FFF7D6
:1009D00095FF0346BB71BB79184600F089F9386072
:1009E000BB791A461349144802F0CCFB1248FFF7B2
:1009F000AFFB0346DBB200930F4B002200210748F8
:100A000002F00BFB084B1B683A685A63642000F045
:100A10007BFB024802F01AFBBFE700BF000000208A
:100A2000903A0008F4000020AC00002000806640EE
:100A300000003440983A00083C01002080B590B096
:100A400000AF07F1180328220021184602F092FB9C
:100A50003B1D00221A605A609A60DA601A61012315
:100A6000BB614FF48033FB6100233B620123BB6217
:100A700002237B634FF48033BB634FF4E013FB63CB
:100A800007F11803184600F0E3FD0346002B01D0E0
:100A900000F058F90F237B600223BB600023FB604A
:100AA0004FF480633B6100237B613B1D02211846AC
:100AB00001F050F80346002B01D000F043F900BFCD
:100AC0004037BD4680BD000080B596B000AF07F14D
:100AD000480300221A605A609A60DA6007F1400306
:100AE00000221A605A6007F1240300221A605A603B
:100AF0009A60DA601A615A619A613B1D20220021D6
:100B0000184602F037FB3E4B3E4A1A603C4B4822E7
:100B10005A603B4B00229A60394B44F61F62DA6000
:100B2000374B00221A61364B00225A61344B0022A7
:100B30009A61334801F074F90346002B01D000F0AC
:100B400001F94FF48053BB6407F1480319462C4860
:100B500001F0A2FC0346002B01D000F0F3F8284876
:100B600001F0ADF90346002B01D000F0EBF80023B3
:100B70003B6400237B6407F140031946204801F0E1
:100B8000F7FF0346002B01D000F0DCF860237B6206
:100B90000023BB620023FB6200233B6300237B63D3
:100BA0000023BB630023FB6307F1240300221946E3
:100BB000134801F0AFFB0346002B01D000F0C2F850
:100BC00000237B600023BB600023FB6000233B61AC
:100BD00000237B614FF40053BB6100233B623B1D4C
:100BE0001946074802F022F80346002B01D000F016
:100BF000A9F8034800F038F900BF5837BD4680BD5A
:100C0000AC000020002C014080B58CB000AF07F193
:100C10000C0324220021184602F0ACFA3B1D0022EE
:100C20001A605A60204B4FF080421A601E4B00221F
:100C30005A601D4B00229A601B4B1422DA601A4B3B
:100C400000221A61184B80229A610123FB60002365
:100C50003B6101237B610023BB610A23FB6100230D
:100C60003B6201237B620023BB620023FB6207F12E
:100C70000C0319460C4801F01DFA0346002B01D065
:100C800000F060F800237B600023BB603B1D194629
:100C9000054801F06DFF0346002B01D000F052F82B
:100CA00000BF3037BD4680BDF400002080B483B063
:100CB00000AF0E4B9B690D4A43F0200393610B4B31
:100CC0009B6903F020037B607B68084B9B69074AA4
:100CD00043F004039361054B9B6903F004033B60FD
:100CE0003B6800BF0C37BD4680BC70470010024017
:100CF00080B582B000AF0346FB71FB795A331846CA
:100D0000FFF780FB0CA3D3E90023FFF7E5FB0246C6
:100D10000B46104619464FF00002094BFFF726FA22
:100D200002460B4610461946FFF7E8FD03461846F3
:100D30000837BD4680BD00BF8EE3388EE3381640CD
:100D400000408F4080B400AF72B600BFFEE70000E5
:100D500080B485B000AF154B9B69144A43F0010382
:100D60009361124B9B6903F00103BB60BB680F4B9F
:100D7000DB690E4A43F08053D3610C4BDB6903F00F
:100D800080537B607B680A4B5B68FB60FB6823F0E9
:100D9000E063FB60FB6843F00073FB60044AFB68A0
:100DA000536000BF1437BD4680BC7047001002403E
:100DB0000000014080B485B000AF78607B681B689C
:100DC000094A93420BD1094B9B69084A43F40063DB
:100DD0009361064B9B6903F40063FB60FB6800BFF3
:100DE0001437BD4680BC7047002C01400010024003
:100DF00080B588B000AF786007F1100300221A6058
:100E00005A609A60DA607B681B68B3F1804F23D127
:100E1000134BDB69124A43F00103D361104BDB69CA
:100E200003F00103FB60FB680D4B9B690C4A43F028
:100E3000040393610A4B9B6903F00403BB60BB6826
:100E400003233B6100237B610023BB6107F1100397
:100E50001946044800F060FA00BF2037BD4680BD47
:100E6000001002400008014080B588B000AF7860F3
:100E700007F1100300221A605A609A60DA607B68FA
:100E80001B68104A934218D10F4B9B690E4A43F0DE
:100E9000040393610C4B9B6903F00403FB60FB6844
:100EA0004FF480733B6102237B610223FB6107F1F6
:100EB00010031946054800F02FFA00BF2037BD4641
:100EC00080BD00BF002C014000100240000801401E
:100ED00080B400AFFEE780B400AFFEE780B400AF9F
:100EE000FEE780B400AFFEE780B400AFFEE780B459
:100EF00000AF00BFBD4680BC704780B400AF00BFEC
:100F0000BD4680BC704780B400AF00BFBD4680BC0A
:100F1000704780B500AF00F0DBF800BF80BD000077
:100F200080B586B000AF7860144A154BD31A7B6148
:100F30007B693B61134B1B68002B02D1114B124A9A
:100F40001A60104B1A687B6813443A699A4207D2B8
:100F500002F0E6F803460C221A604FF0FF3309E076
:100F6000084B1B68FB60074B1A687B681344054AF3
:100F70001360FB6818461837BD4680BD005000203E
:100F800000040000500100206801002080B400AF80
:100F900000BFBD4680BC7047FFF7F8FF0B480C4907
:100FA0000C4A002302E0D458C4500433C4188C42C5
:100FB000F9D3094A094C002301E013600432A2422C
:100FC000FBD302F0B3F8FFF7B9FC70470000002034
:100FD00090000020083B00089000002068010020DD
:100FE000FEE7000080B400AF144BDB68134A23F027
:100FF0008073D360114BDB68104A43F08073D36079
:101000000F4B1B680E4A23F0010313600C4B1B6847
:101010000B4A43F001031360094B00225A6000BFE2
:1010200000BF00BF064B5B68002B01D0002300E02F
:1010300001231846BD4680BC704700BFF0ED00E0BC
:10104000001000E080B500AF084B1B68074A43F072
:1010500010031360032000F02BF90F2000F008F8B4
:10106000FFF776FE0023184680BD00BF0020024037
:1010700080B582B000AF7860124B1A68124B1B78B3
:1010800019464FF47A73B3FBF1F3B2FBF3F318464E
:1010900000F035F90346002B01D001230EE07B68F8
:1010A0000F2B0AD8002279684FF0FF3000F00BF9BF
:1010B000064A7B681360002300E0012318460837C6
:1010C000BD4680BD20000020280000202400002014
:1010D00080B400AF054B1B781A46054B1B681344C0
:1010E000034A136000BFBD4680BC70472800002043
:1010F0005401002080B400AF024B1B681846BD4667
:1011000080BC70475401002080B584B000AF786087
:10111000FFF7F0FFB8607B68FB60FB68B3F1FF3F4F
:1011200005D00A4B1B781A46FB681344FB6000BFCE
:10113000FFF7E0FF0246BB68D31AFA689A42F7D875
:1011400000BF00BF1037BD4680BD00BF2800002093
:1011500080B485B000AF78607B6803F00703FB6064
:101160000C4BDB68BB60BA684FF6FF031340BB60F3
:10117000FB681A02BB68134343F0BF6343F40033B8
:10118000BB60044ABB68D36000BF1437BD4680BC57
:10119000704700BF00ED00E080B400AF044BDB6897
:1011A0001B0A03F007031846BD4680BC704700BF0A
:1011B00000ED00E080B483B000AF03463960FB71FE
:1011C00097F90730002B0ADB3B68DAB20C4997F934
:1011D00007301201D2B20B4483F800230AE03B68C7
:1011E000DAB20849FB7903F00F03043B1201D2B2D3
:1011F0000B441A7600BF0C37BD4680BC704700BF59
:1012000000E100E000ED00E080B489B000AFF860DC
:10121000B9607A60FB6803F00703FB61FB69C3F107
:101220000703042B28BF0423BB61FB690433062B8F
:1012300002D9FB69033B00E000237B614FF0FF32E2
:10124000BB6902FA03F3DA43BB681A407B699A4030
:101250004FF0FF317B6901FA03F3D9437B680B4000
:10126000134318462437BD4680BC704780B582B012
:1012700000AF78607B68013BB3F1807F01D301232D
:101280000FE00A4A7B68013B53600F214FF0FF30AB
:10129000FFF790FF054B00229A60044B07221A606B
:1012A000002318460837BD4680BD00BF10E000E0AF
:1012B00080B582B000AF78607868FFF749FF00BF63
:1012C0000837BD4680BD80B586B000AF0346B96023
:1012D0007A60FB7300237B61FFF75EFF78617A68B9
:1012E000B9687869FFF790FF024697F90F30114609
:1012F0001846FFF75FFF00BF1837BD4680BD80B5B9
:1013000082B000AF78607868FFF7B0FF03461846F8
:101310000837BD4680BD000080B48BB000AF786058
:10132000396000237B6200233B6269E101227B6A12
:1013300002FA03F3FB613B681B68FA691340BB6167
:10134000BA69FB699A4240F058813B685B689A4AE7
:1013500093425ED0984A934275D8984A934258D0A7
:10136000964A93426FD8964A934252D0944A9342F7
:1013700069D8944A93424CD0924A934263D8924A95
:10138000934246D0904A93425DD8122B2AD8122B12
:1013900059D801A252F823F013140008ED130008E5
:1013A000FF13000841140008471400084714000800
:1013B00047140008471400084714000847140008A1
:1013C0004714000847140008471400084714000891
:1013D000471400084714000847140008F5130008D4
:1013E00009140008794A934213D02CE03B68DB686B
:1013F0003B6229E03B68DB6804333B6224E03B68E6
:10140000DB6808333B621FE03B68DB680C333B6200
:101410001AE03B689B68002B02D104233B6213E077
:101420003B689B68012B05D108233B627B68FA6906
:101430001A6109E008233B627B68FA695A6103E09C
:1014400000233B6200E000BFBB69FF2B01D87B6833
:1014500001E07B6804337B61BB69FF2B02D87B6AA8
:101460009B0002E07B6A083B9B003B617B691A683A
:101470000F213B6901FA03F3DB431A40396A3B69E8
:1014800001FA03F31A437B691A603B685B6803F057
:101490008053002B00F0B1804D4B9B694C4A43F0C8
:1014A000010393614A4B9B6903F00103BB60BB6876
:1014B000484A7B6A9B08023352F82330FB607B6A00
:1014C00003F003039B000F2202FA03F3DB43FA68E5
:1014D0001340FB607B68404A934213D07B683F4ACD
:1014E00093420DD07B683E4A934207D07B683D4AC9
:1014F000934201D1032306E0042304E0022302E027
:10150000012300E000237A6A02F003029200934074
:10151000FA681343FB602F497B6A9B080233FA6821
:1015200041F823203B685B6803F48013002B06D04E
:101530002D4B9A682C49BB6913438B6006E02A4BFC
:101540009A68BB69DB43284913408B603B685B6842
:1015500003F40013002B06D0234BDA682249BB6941
:101560001343CB6006E0204BDA68BB69DB431E49BE
:101570001340CB603B685B6803F40033002B06D05C
:10158000194B5A681849BB6913434B6006E0164B68
:101590005A68BB69DB43144913404B603B685B6886
:1015A00003F48033002B21D00F4B1A680E49BB691E
:1015B00013430B6021E000BF000032100000311027
:1015C0000000221000002110000012100000111075
:1015D000001002400000014000080140000C0140E2
:1015E0000010014000140140000401400B4B1A6838
:1015F000BB69DB43094913400B607B6A01337B62A3
:101600003B681A687B6A22FA03F3002B7FF48EAEE4
:1016100000BF00BF2C37BD4680BC704700040140AE
:1016200080B483B000AF78600B467B8013467B703C
:101630007B78002B03D07A887B681A6103E07B8873
:101640001A047B681A6100BF0C37BD4680BC704726
:1016500080B586B000AF78607B68002B01D1012394
:1016600072E27B681B6803F00103002B00F08780A7
:10167000924B5B6803F00C03042B0CD08F4B5B6820
:1016800003F00C03082B12D18C4B5B6803F48033FE
:10169000B3F5803F0BD1894B1B6803F40033002B5B
:1016A0006CD07B685B68002B68D101234CE27B68BF
:1016B0005B68B3F5803F06D1804B1B687F4A43F4DB
:1016C000803313602EE07B685B68002B0CD17B4B72
:1016D0001B687A4A23F480331360784B1B68774A7F
:1016E00023F4802313601DE07B685B68B3F5A02FB3
:1016F0000CD1724B1B68714A43F4802313606F4B0B
:101700001B686E4A43F4803313600BE06B4B1B681D
:101710006A4A23F480331360684B1B68674A23F4DA
:10172000802313607B685B68002B13D0FFF7E2FC1B
:10173000386108E0FFF7DEFC02463B69D31A642BF0
:1017400001D9032300E25D4B1B6803F40033002B37
:10175000F0D014E0FFF7CEFC386108E0FFF7CAFCD8
:1017600002463B69D31A642B01D90323ECE1534BA6
:101770001B6803F40033002BF0D100E000BF7B684E
:101780001B6803F00203002B63D04C4B5B6803F033
:101790000C03002B0BD0494B5B6803F00C03082BA8
:1017A0001CD1464B5B6803F48033002B16D1434BAE
:1017B0001B6803F00203002B05D07B681B69012B1B
:1017C00001D00123C0E13D4B1B6823F0F8027B6888
:1017D0005B69DB00394913430B603AE07B681B69A6
:1017E000002B20D0364B01221A60FFF783FC3861B2
:1017F00008E0FFF77FFC02463B69D31A022B01D9B0
:101800000323A1E12D4B1B6803F00203002BF0D052
:101810002A4B1B6823F0F8027B685B69DB002749D1
:1018200013430B6015E0264B00221A60FFF762FCA1
:10183000386108E0FFF75EFC02463B69D31A022BD1
:1018400001D9032380E11D4B1B6803F00203002B29
:10185000F0D17B681B6803F00803002B3AD07B684B
:101860009B69002B19D0174B01221A60FFF742FC2D
:10187000386108E0FFF73EFC02463B69D31A022BB1
:1018800001D9032360E10D4B5B6A03F00203002BD7
:10189000F0D0012000F0A6FA1CE00A4B00221A60EA
:1018A000FFF728FC38610FE0FFF724FC02463B6994
:1018B000D31A022B08D9032346E100BF00100240CF
:1018C0000000424280044242924B5B6A03F00203F2
:1018D000002BE9D17B681B6803F00403002B00F0A8
:1018E000A6800023FB758B4BDB6903F08053002B34
:1018F0000DD1884BDB69874A43F08053D361854B18
:10190000DB6903F08053BB60BB680123FB75824B2E
:101910001B6803F48073002B18D17F4B1B687E4A31
:1019200043F480731360FFF7E5FB386108E0FFF7CD
:10193000E1FB02463B69D31A642B01D9032303E17F
:10194000754B1B6803F48073002BF0D07B68DB6859
:10195000012B06D16F4B1B6A6E4A43F001031362E1
:101960002DE07B68DB68002B0CD16A4B1B6A694A4F
:1019700023F001031362674B1B6A664A23F00403DA
:1019800013621CE07B68DB68052B0CD1614B1B6A82
:10199000604A43F0040313625E4B1B6A5D4A43F0E6
:1019A000010313620BE05B4B1B6A5A4A23F00103ED
:1019B0001362584B1B6A574A23F0040313627B6877
:1019C000DB68002B15D0FFF795FB38610AE0FFF7C5
:1019D00091FB02463B69D31A41F28832934201D906
:1019E0000323B1E04B4B1B6A03F00203002BEED044
:1019F00014E0FFF77FFB38610AE0FFF77BFB02464C
:101A00003B69D31A41F28832934201D903239BE008
:101A1000404B1B6A03F00203002BEED1FB7D012B30
:101A200005D13C4BDB693B4A23F08053D3617B6893
:101A3000DB69002B00F08780364B5B6803F00C03FA
:101A4000082B61D07B68DB69022B46D1334B002227
:101A50001A60FFF74FFB386108E0FFF74BFB0246C7
:101A60003B69D31A022B01D903236DE0294B1B6874
:101A700003F00073002BF0D17B681B6AB3F5803F45
:101A800008D1244B5B6823F400327B689B682149B2
:101A900013434B601F4B5B6823F474127B68196A15
:101AA0007B685B6A0B431B4913434B601B4B012252
:101AB0001A60FFF71FFB386108E0FFF71BFB0246C7
:101AC0003B69D31A022B01D903233DE0114B1B685C
:101AD00003F00073002BF0D035E0104B00221A60A9
:101AE000FFF708FB386108E0FFF704FB02463B699B
:101AF000D31A022B01D9032326E0064B1B6803F0FF
:101B00000073002BF0D11EE07B68DB69012B07D14D
:101B1000012319E0001002400070004060004242C2
:101B20000B4B5B68FB60FB6803F480327B681B6ACD
:101B30009A4206D1FB6803F470127B685B6A9A4292
:101B400001D0012300E0002318461837BD4680BDB0
:101B50000010024080B584B000AF786039607B68C7
:101B6000002B01D10123D0E06A4B1B6803F007036F
:101B70003A689A4210D9674B1B6823F007026549FF
:101B80003B6813430B60634B1B6803F007033A6821
:101B90009A4201D00123B8E07B681B6803F002037E
:101BA000002B20D07B681B6803F00403002B05D0BA
:101BB000594B5B68584A43F4E06353607B681B6889
:101BC00003F00803002B05D0534B5B68524A43F4E3
:101BD00060535360504B5B6823F0F0027B689B6856
:101BE0004D4913434B607B681B6803F00103002BD6
:101BF00040D07B685B68012B07D1474B1B6803F41F
:101C00000033002B15D101237FE07B685B68022B3A
:101C100007D1414B1B6803F00073002B09D101234E
:101C200073E03D4B1B6803F00203002B01D101233D
:101C30006BE0394B5B6823F003027B685B683649D5
:101C400013434B60FFF756FAF8600AE0FFF752FAC9
:101C50000246FB68D31A41F28832934201D903232A
:101C600053E02D4B5B6803F00C027B685B689B00C4
:101C70009A42EBD1274B1B6803F007033A689A425C
:101C800010D2244B1B6823F0070222493B68134300
:101C90000B60204B1B6803F007033A689A4201D09F
:101CA000012332E07B681B6803F00403002B08D09B
:101CB000194B5B6823F4E0627B68DB6816491343C9
:101CC0004B607B681B6803F00803002B09D0124BA4
:101CD0005B6823F460527B681B69DB000E49134389
:101CE0004B6000F021F802460B4B5B681B0903F0C8
:101CF0000F030A49CB5C22FA03F3094A1360094B2C
:101D00001B681846FFF7B4F9002318461037BD4684
:101D100080BD00BF0020024000100240A83A000829
:101D2000200000202400002080B487B000AF0023F2
:101D3000FB600023BB6000237B6100237B600023EA
:101D40003B611E4B5B68FB60FB6803F00C03042BDC
:101D500002D0082B03D027E0194B3B6127E0FB683A
:101D60009B0C03F00F03174AD35C7B60FB6803F402
:101D70008033002B10D0114B5B685B0C03F0010328
:101D8000114AD35CBB607B680D4A03FB02F2BB685F
:101D9000B2FBF3F37B6104E07B680C4A02FB03F3C4
:101DA0007B617B693B6102E0054B3B6100BF3B69A6
:101DB00018461C37BD4680BC704700BF001002406B
:101DC00000127A00B83A0008C83A000800093D003D
:101DD00080B400AF024B1B681846BD4680BC7047FC
:101DE0002000002080B485B000AF78600A4B1B68EB
:101DF0000A4AA2FB03235B0A7A6802FB03F3FB6037
:101E000000BFFB685A1EFA60002BF9D100BF00BF6B
:101E10001437BD4680BC704720000020D34D6210AF
:101E200080B582B000AF78607B68002B01D10123C0
:101E300041E07B6893F83D30DBB2002B06D17B6834
:101E4000002283F83C207868FEF7B4FF7B6802220A
:101E500083F83D207B681A687B6804331946104676
:101E600000F0E2FB7B68012283F846207B680122B8
:101E700083F83E207B68012283F83F207B680122A3
:101E800083F840207B68012283F841207B6801228F
:101E900083F842207B68012283F843207B6801227B
:101EA00083F844207B68012283F845207B68012267
:101EB00083F83D20002318460837BD4680BD80B515
:101EC00082B000AF78607B68002B01D1012341E034
:101ED0007B6893F83D30DBB2002B06D17B68002293
:101EE00083F83C20786800F039F87B68022283F898
:101EF0003D207B681A687B6804331946104600F061
:101F000093FB7B68012283F846207B68012283F8DB
:101F10003E207B68012283F83F207B68012283F802
:101F200040207B68012283F841207B68012283F8EE
:101F300042207B68012283F843207B68012283F8DA
:101F400044207B68012283F845207B68012283F8C6
:101F50003D20002318460837BD4680BD80B483B0BD
:101F600000AF786000BF0C37BD4680BC70470000F2
:101F700080B584B000AF786039603B68002B09D130
:101F80007B6893F83E30DBB2012B14BF01230023A2
:101F9000DBB222E03B68042B09D17B6893F83F3029
:101FA000DBB2012B14BF01230023DBB215E03B6839
:101FB000082B09D17B6893F84030DBB2012B14BFAA
:101FC00001230023DBB208E07B6893F84130DBB2E9
:101FD000012B14BF01230023DBB2002B01D001230E
:101FE0005EE03B68002B04D17B68022283F83E2030
:101FF00013E03B68042B04D17B68022283F83F2066
:102000000BE03B68082B04D17B68022283F8402058
:1020100003E07B68022283F841207B681B68012271
:102020003968184600F080FD7B681B681E4A9342A1
:1020300007D17B681B685A6C7B681B6842F40042BE
:102040005A647B681B68184A93420ED07B681B68F1
:10205000B3F1804F09D07B681B68144A934204D0C7
:102060007B681B68124A934211D17B681B689B688E
:1020700003F00703FB60FB68062B10D07B681B682E
:102080001A687B681B6842F001021A6007E07B68EF
:102090001B681A687B681B6842F001021A60002303
:1020A00018461037BD4680BD002C0140000400409A
:1020B0000008004080B586B000AF786039607B686A
:1020C000002B01D1012393E07B6893F83D30DBB214
:1020D000002B06D17B68002283F83C207868FEF74D
:1020E00087FE7B68022283F83D207B681B689B6823
:1020F0007A68126823F4804323F0070393607B68B7
:102100001A687B6804331946104600F08DFA7B6824
:102110001B689B687B617B681B689B693B617B6874
:102120001B681B6AFB603B681B687A6913437B6111
:102130003B6923F4407323F003033B613B689A68D7
:102140003B689B691B0213433A6913433B613B693C
:1021500023F4406323F00C033B613B6923F4704399
:1021600023F0F0033B613B68DA683B68DB691B02E4
:1021700013433A6913433B613B681B691A013B688F
:102180001B6A1B0313433A6913433B61FB6823F04B
:102190002203FB603B685A683B685B691B01134381
:1021A000FA681343FB607B681B687A699A607B68F6
:1021B0001B683A699A617B681B68FA681A627B68D7
:1021C000012283F846207B68012283F83E207B6849
:1021D000012283F83F207B68012283F842207B683C
:1021E000012283F843207B68012283F83D200023ED
:1021F00018461837BD4680BD80B584B000AF786002
:1022000039607B6893F83E30FB737B6893F83F300E
:10221000BB737B6893F842307B737B6893F84330E1
:102220003B733B68002B10D1FB7B012B02D17B7BE6
:10223000012B01D0012369E07B68022283F83E2054
:102240007B68022283F8422031E03B68042B10D1E6
:10225000BB7B012B02D13B7B012B01D0012355E03D
:102260007B68022283F83F207B68022283F84320A8
:102270001DE0FB7B012B08D1BB7B012B05D17B7BB8
:10228000012B02D13B7B012B01D001233EE07B6877
:10229000022283F83E207B68022283F83F207B687D
:1022A000022283F842207B68022283F843203B68A5
:1022B000002B03D03B68042B08D00FE07B681B6821
:1022C00001220021184600F02FFC16E07B681B68F5
:1022D00001220421184600F027FC0EE07B681B68F1
:1022E00001220021184600F01FFC7B681B680122B8
:1022F0000421184600F018FC00BF7B681B681A68B0
:102300007B681B6842F001021A60002318461037F0
:10231000BD4680BD80B586B000AFF860B9607A6018
:102320000023FB75FB6893F83C30012B01D102239D
:10233000AEE0FB68012283F83C207B680C2B00F2A6
:102340009F8001A252F823F07D2300088124000819
:102350008124000881240008BD230008812400088E
:102360008124000881240008FF230008812400083C
:1023700081240008812400083F240008FB681B68B2
:10238000B968184600F0B2F9FB681B689A69FB68E7
:102390001B6842F008029A61FB681B689A69FB6837
:1023A0001B6822F004029A61FB681B689969BB688C
:1023B0001A69FB681B680A439A6164E0FB681B6842
:1023C000B968184600F0F8F9FB681B689A69FB6861
:1023D0001B6842F400629A61FB681B689A69FB689B
:1023E0001B6822F480629A61FB681B689969BB686C
:1023F0001B691A02FB681B680A439A6143E0FB6889
:102400001B68B968184600F041FAFB681B68DA6976
:10241000FB681B6842F00802DA61FB681B68DA6936
:10242000FB681B6822F00402DA61FB681B68D9694B
:10243000BB681A69FB681B680A43DA6123E0FB6822
:102440001B68B968184600F08BFAFB681B68DA69EC
:10245000FB681B6842F40062DA61FB681B68DA699A
:10246000FB681B6822F48062DA61FB681B68D9692B
:10247000BB681B691A02FB681B680A43DA6102E049
:102480000123FB7500BFFB68002283F83C20FB7D25
:1024900018461837BD4680BD80B584B000AF78605F
:1024A00039600023FB737B6893F83C30012B01D12A
:1024B0000223B4E07B68012283F83C207B6802227F
:1024C00083F83D207B681B689B68BB60BB6823F07A
:1024D0007703BB60BB6823F47F43BB607B681B68EA
:1024E000BA689A603B681B68B3F5005F3ED0B3F5ED
:1024F000005F00F28780B3F5805F00F08680B3F55F
:10250000805F7FD8702B1AD0702B7BD8602B50D077
:10251000602B77D8502B3CD0502B73D8402B58D001
:10252000402B6FD8302B64D0302B6BD8202B60D051
:10253000202B67D8002B5CD0102B5AD062E07B6830
:1025400018683B6899683B685A683B68DB6800F02C
:10255000CCFA7B681B689B68BB60BB6843F0770361
:10256000BB607B681B68BA689A604FE07B6818683C
:102570003B6899683B685A683B68DB6800F0B5FACD
:102580007B681B689A687B681B6842F480429A608B
:102590003CE07B6818683B6859683B68DB681A4612
:1025A00000F02CFA7B681B685021184600F083FA73
:1025B0002CE07B6818683B6859683B68DB681A4602
:1025C00000F04AFA7B681B686021184600F073FA35
:1025D0001CE07B6818683B6859683B68DB681A46F2
:1025E00000F00CFA7B681B684021184600F063FA83
:1025F0000CE07B681A683B681B681946104600F0BF
:102600005AFA03E00123FB7300E000BF7B6801225C
:1026100083F83D207B68002283F83C20FB7B184632
:102620001037BD4680BD000080B485B000AF786033
:1026300039607B681B68FB607B68294A93420BD03A
:102640007B68B3F1804F07D07B68264A934203D062
:102650007B68254A934208D1FB6823F07003FB6036
:102660003B685B68FA681343FB607B681C4A9342D3
:102670000BD07B68B3F1804F07D07B68194A934237
:1026800003D07B68184A934208D1FB6823F4407357
:10269000FB603B68DB68FA681343FB60FB6823F070
:1026A00080023B685B691343FB607B68FA681A60D1
:1026B0003B689A687B68DA623B681A687B689A6252
:1026C0007B68074A934203D13B681A697B681A63A7
:1026D0007B6801225A6100BF1437BD4680BC704739
:1026E000002C0140000400400008004080B487B086
:1026F00000AF786039607B681B6A7B617B681B6A0E
:1027000023F001027B681A627B685B683B617B682F
:102710009B69FB60FB6823F07003FB60FB6823F0A0
:102720000303FB603B681B68FA681343FB607B692B
:1027300023F002037B613B689B687A6913437B61EA
:102740007B681C4A93420CD17B6923F008037B61B0
:102750003B68DB687A6913437B617B6923F0040380
:102760007B617B68134A934211D13B6923F48073E8
:102770003B613B6923F400733B613B685B693A69E9
:1027800013433B613B689B693A6913433B617B6838
:102790003A695A607B68FA689A613B685A687B6854
:1027A0005A637B687A691A6200BF1C37BD4680BCD9
:1027B000704700BF002C014080B487B000AF786044
:1027C00039607B681B6A7B617B681B6A23F010029F
:1027D0007B681A627B685B683B617B689B69FB6016
:1027E000FB6823F4E043FB60FB6823F44073FB6069
:1027F0003B681B681B02FA681343FB607B6923F08C
:1028000020037B613B689B681B017A6913437B61F2
:102810007B681D4A93420DD17B6923F080037B6165
:102820003B68DB681B017A6913437B617B6923F09A
:1028300040037B617B68144A934213D13B6923F4C4
:1028400080633B613B6923F400633B613B685B69E8
:102850009B003A6913433B613B689B699B003A6963
:1028600013433B617B683A695A607B68FA689A61F6
:102870003B685A687B689A637B687A691A6200BF12
:102880001C37BD4680BC7047002C014080B487B027
:1028900000AF786039607B681B6A7B617B681B6A6C
:1028A00023F480727B681A627B685B683B617B689B
:1028B000DB69FB60FB6823F07003FB60FB6823F0BF
:1028C0000303FB603B681B68FA681343FB607B698A
:1028D00023F400737B613B689B681B027A69134396
:1028E0007B617B681D4A93420DD17B6923F40063B1
:1028F0007B613B68DB681B027A6913437B617B6900
:1029000023F480637B617B68144A934213D13B6953
:1029100023F480533B613B6923F400533B613B68E4
:102920005B691B013A6913433B613B689B691B016F
:102930003A6913433B617B683A695A607B68FA687D
:10294000DA613B685A687B68DA637B687A691A6285
:1029500000BF1C37BD4680BC704700BF002C014043
:1029600080B487B000AF786039607B681B6A3B61D8
:102970007B681B6A23F480527B681A627B685B6801
:102980007B617B68DB69FB60FB6823F4E043FB60F1
:10299000FB6823F44073FB603B681B681B02FA680A
:1029A0001343FB603B6923F400533B613B689B6826
:1029B0001B033A6913433B617B680F4A934209D179
:1029C0007B6923F480437B613B685B699B017A6987
:1029D00013437B617B687A695A607B68FA68DA61C5
:1029E0003B685A687B681A647B683A691A6200BF60
:1029F0001C37BD4680BC7047002C014080B487B0B6
:102A000000AFF860B9607A60FB681B6A7B61FB68A5
:102A10001B6A23F00102FB681A62FB689B693B6139
:102A20003B6923F0F0033B617B681B013A69134368
:102A30003B617B6923F00A037B617A69BB681343BE
:102A40007B61FB683A699A61FB687A691A6200BF28
:102A50001C37BD4680BC704780B487B000AFF860BB
:102A6000B9607A60FB681B6A7B61FB681B6A23F0B4
:102A70001002FB681A62FB689B693B613B6923F4A7
:102A800070433B617B681B033A6913433B617B697D
:102A900023F0A0037B61BB681B017A6913437B6150
:102AA000FB683A699A61FB687A691A6200BF1C3751
:102AB000BD4680BC704780B485B000AF7860396097
:102AC0007B689B68FB60FB6823F07003FB603A68DF
:102AD000FB68134343F00703FB607B68FA689A6066
:102AE00000BF1437BD4680BC704780B487B000AFCC
:102AF000F860B9607A603B60FB689B687B617B69CA
:102B000023F47F437B613B681A027B681A43BB68EE
:102B100013437A6913437B61FB687A699A6000BF4B
:102B20001C37BD4680BC704780B487B000AFF860EA
:102B3000B9607A60BB6803F01F03012202FA03F355
:102B40007B61FB681A6A7B69DB431A40FB681A6287
:102B5000FB681A6ABB6803F01F03796801FA03F384
:102B60001A43FB681A6200BF1C37BD4680BC704721
:102B700080B485B000AF786039607B6893F83C30F2
:102B8000012B01D1022346E07B68012283F83C201F
:102B90007B68022283F83D207B681B685B68FB60D2
:102BA0007B681B689B68BB60FB6823F07003FB605D
:102BB0003B681B68FA681343FB607B681B68FA6814
:102BC0005A607B681B68164A93420ED07B681B686C
:102BD000B3F1804F09D07B681B68124A934204D03E
:102BE0007B681B68104A93420CD1BB6823F08003BA
:102BF000BB603B685B68BA681343BB607B681B685B
:102C0000BA689A607B68012283F83D207B680022C5
:102C100083F83C20002318461437BD4680BC70471B
:102C2000002C0140000400400008004080B485B042
:102C300000AF786039600023FB607B6893F83C301C
:102C4000012B01D102233DE07B68012283F83C2067
:102C5000FB6823F0FF023B68DB681343FB60FB6803
:102C600023F440723B689B681343FB60FB6823F4CA
:102C700080623B685B681343FB60FB6823F400627F
:102C80003B681B681343FB60FB6823F480523B687E
:102C90001B691343FB60FB6823F400523B685B69CC
:102CA0001343FB60FB6823F480423B68DB691343FA
:102CB000FB607B681B68FA685A647B68002283F8B3
:102CC0003C20002318461437BD4680BC70470000E6
:102CD00080B584B000AF78600D4B5B68FB60FFF798
:102CE00077F803460B4AA2FB03239B0C7A6802FB8E
:102CF00003F37B6000BF064B5A68FB68D21A7B68FF
:102D00009A42F8D300BF00BF1037BD4680BD00BF58
:102D1000001000E083DE1B4380B582B000AF0346A5
:102D2000FB80FB881846FFF7D3FF00BF0837BD467E
:102D300080BD80B483B000AF78600B46FB707B68C9
:102D40005B68DA687B681B7A19460F238B40DB438C
:102D500019467B685B680A40DA607B685B68DA6802
:102D6000FB787968097A8B4019467B685B680A436F
:102D7000DA6000BF0C37BD4680BC704780B582B0BA
:102D800000AF78600B46FB707B6858697B681B8BD3
:102D9000FA781946FEF744FC00BF0837BD4680BDEF
:102DA00080B582B000AF78600B46FB707B68D86856
:102DB0007B681B8AFA781946FEF732FC00BF083799
:102DC000BD4680BD80B586B000AF786007F10803CE
:102DD00000221A605A609A60DA607B681B8BBB60C5
:102DE0000123FB6002237B617B685B6907F10802BA
:102DF00011461846FEF790FA7B681B8ABB607B6819
:102E0000DB6807F1080211461846FEF785FA7B6871
:102E10001B7A1A460F239340BB607B685B6807F1FF
:102E2000080211461846FEF777FA00BF1837BD466C
:102E300080BD80B582B000AF78600B46FB70134652
:102E4000BB70FB7819467868FFF798FFBB781B09C1
:102E5000DBB219467868FFF76CFF01217868FFF74D
:102E60009FFF0A20FFF758FF00217868FFF798FFBF
:102E70006420FFF751FFBB7819467868FFF759FFC8
:102E800001217868FFF78CFF0A20FFF745FF00213A
:102E90007868FFF785FF6420FFF73EFF00BF083723
:102EA000BD4680BD80B584B000AF78600B46FB7036
:102EB0001346BB70FEF796F87868FFF783FF7B68D0
:102EC00000229A767B684022DA767B68BA781A7795
:102ED000BB784033DAB27B685A7700217868FFF715
:102EE0004DFF00217868FFF75BFF4CF25030FFF791
:102EF00013FF0023FB7318E003217868FFF719FF25
:102F000001217868FFF74CFF0A20FFF705FF002139
:102F10007868FFF745FF6420FFF7FEFE41F294104A
:102F2000FFF7FAFEFB7B0133FB73FB7B012BE3D93D
:102F300003217868FFF7FDFE01217868FFF730FF75
:102F40000A20FFF7E9FE00217868FFF729FF6420D7
:102F5000FFF7E2FE9620FFF7DFFE02217868FFF719
:102F6000E8FE01217868FFF71BFF0A20FFF7D4FE77
:102F700000217868FFF714FF6420FFF7CDFE2822B8
:102F800000217868FFF755FF0023002201217868AF
:102F900000F06DF8786800F059F800BF1037BD46B2
:102FA00080BD80B582B000AF78600B46FB701346E1
:102FB000BB70FB787A6813449A7EBB781344DBB20B
:102FC0005BB263F07F035BB2DBB21A460021786824
:102FD000FFF72FFF00BF0837BD4680BD80B586B024
:102FE00000AFF860B9601346FB710023FB750BE07E
:102FF000BB685A1CBA601B781A460121F868FFF7B3
:1030000018FFFB7D0133FB75FA7DFB799A42EFD304
:1030100000BF00BF1837BD4680BD80B584B000AF8B
:10302000F8607B600B46FB721346BB72BA7AFB7A80
:103030001946F868FFF7B5FF3B7E1A467968F868CD
:10304000FFF7CCFF00BF1037BD4680BD80B582B012
:1030500000AF7860012200217868FFF7EAFE4FF4A4
:10306000FA60FFF759FE00BF0837BD4680BD80B546
:1030700082B000AF7860084611461A460346FB70DE
:103080000B46BB7013467B707B6800229A77FB78F7
:10309000002B06D07B689B7F43F00403DAB27B6889
:1030A0009A77BB78002B06D07B689B7F43F00203A6
:1030B000DAB27B689A777B78002B06D07B689B7F9F
:1030C00043F00103DAB27B689A777B689B7F43F019
:1030D0000403DAB27B689A777B689B7F43F008032E
:1030E000DBB21A4600217868FFF7A3FE00BF08375D
:1030F000BD4680BD80B485B000AF78600023FB6022
:1031000002E0FB680133FB607B685A1C7A601B7825
:10311000002BF6D1FB6818461437BD4680BC7047BB
:10312000014B1868704700BF2C00002070B50026C6
:103130000C4D0D4C641BA410A64209D100F09CFC60
:1031400000260A4D0A4C641BA410A64205D170BD8E
:1031500055F8043B98470136EEE755F8043B98478D
:103160000136F2E7003B0008003B0008003B000886
:10317000043B000803460244934200D1704703F821
:10318000011BF9E70EB46FF0004100B59CB01DAB18
:1031900002900690079104910848094953F8042BBE
:1031A0000591006802A9019300F068F80022029BD3
:1031B0001A701CB05DF804EB03B070472C000020BF
:1031C0000802FFFF2DE9F0478E6882469E420C46BA
:1031D00090461F4638D88A8912F4906F32D02568FD
:1031E00009690133A5EB010965694B4405EB450508
:1031F00005EBD5756D109D4238BF1D46530531D581
:10320000294600F06FFB064650B90C234FF0FF3003
:10321000CAF80030A38943F04003A381BDE8F087DA
:103220004A46216900F0CEFAA38923F4906343F063
:103230008003A38126614E4426603E466561A5EB6E
:103240000905A560BE4200D93E4632464146206887
:1032500000F0C6FAA36800209B1BA36023683344D8
:103260002360DBE72A4600F0B1FB06460028E1D1E7
:103270005046216900F0CEFAC7E700002DE9F04F73
:1032800098468B8907461B060D4614469DB00ED501
:103290000B6963B9402100F025FB2860286120B943
:1032A0000C233B604FF0FF30D1E040236B610023E3
:1032B000099320238DF8293030234FF00109CDF8F0
:1032C0000C80DFF8A4818DF82A3023469A4613F843
:1032D000012B0AB1252AF9D1BAEB040B0BD05B46BE
:1032E000224629463846FFF76DFF013000F0AA80DC
:1032F000099A5A4409929AF80030002B00F0A280F3
:1033000000234FF0FF32CDE905230AF1010A0493AF
:1033100007938DF853301A935446052214F8011B75
:10332000514800F041FA049AD8B9D00644BF20238E
:103330008DF85330110744BF2B238DF853309AF882
:1033400000302A2B15D0544600204FF00A0C079A63
:10335000214611F8013B303B092B4ED9B0B1079201
:1033600014E0A0EB080309FA03F31343A246049305
:10337000D2E7039B191D1B680391002BBBBF5B4267
:1033800042F0020207930793B8BF049223782E2BD2
:103390000CD163782A2B35D1039B02341A1D1B688C
:1033A0000392002BB8BF4FF0FF330593DFF8BCA0AA
:1033B00003225046217800F0F7F940B14023A0EBFA
:1033C0000A0003FA00F0049B01340343049314F849
:1033D000011B062226488DF8281000F0E5F9002888
:1033E00038D0244B1BBB039B073323F00703083360
:1033F0000393099B3344099367E70C4601200CFBB8
:103400000232A5E700234FF00A0C19460134059358
:10341000204610F8012B303A092A03D9002BC5D0D9
:103420000591C3E7044601230CFB0121F0E703AB40
:1034300000932A463846104B04A9AFF30080421C83
:103440000646D6D1AB895B063FF52CAF09981DB077
:10345000BDE8F08F03AB00932A463846064B04A91B
:1034600000F07CF8EBE700BFCA3A0008D03A000849
:10347000D43A000800000000C53100082DE9F047EB
:10348000164699468A680B6907469342B8BF1346A9
:10349000336091F843200C46DDF820800AB10133F7
:1034A00033602368990642BF33680233336025686E
:1034B00015F0060506D104F1190AE36832689B1A73
:1034C000AB4228DC94F84320131E226818BF012366
:1034D00092062DD44946384604F14302C0470130D4
:1034E00020D02368E56803F00603042B18BF0025ED
:1034F00032684FF00006A36808BFAD1A226908BF02
:1035000025EAE5759342C4BF9B1AED181A34B542FB
:103510001AD1002008E00123524649463846C047E8
:10352000013003D14FF0FF30BDE8F0870135C4E72B
:103530003020E11881F843005A1C94F845102244C9
:10354000023382F84310C5E7012322464946384634
:10355000C0470130E6D00136D9E700002DE9FF472A
:103560000F7E9146782F80460C469A460C9D01F1BD
:10357000430207D8622F0AD8002F00F0D980582FB5
:1035800000F0A48004F1420584F842703AE0A7F10B
:103590006303152BF6D801A151F823F0F535000887
:1035A000093600088535000885350008853500088E
:1035B000853500080936000885350008853500087E
:1035C00085350008853500081737000839360008AA
:1035D000F9360008853500088535000839370008B8
:1035E000853500083936000885350008853500081E
:1035F000013700082B681A1D1B682A6004F1420578
:1036000084F842300123A4E020682968060601F10D
:1036100004030AD50E682B60002E03DA2D237642B0
:1036200084F843300A235E4819E00E6810F0400F1A
:103630002B6018BF36B2EFE72B682068191D296090
:10364000010601D51E6802E04606FBD51E886F2FD5
:103650000CBF08230A235248002184F843106568F0
:10366000002DA8BF2168A560A4BF21F0040121603E
:103670000EB9002D4DD01546B6FBF3F103FB1167D3
:10368000C75D05F8017D3746BB420E46F4D9082BCD
:103690000BD12368DE0708D5236961689942DEBF34
:1036A000302305F8013C05F1FF35521B22614B46E2
:1036B00021464046CDF800A003AAFFF7DFFE013007
:1036C0004CD14FF0FF3004B0BDE8F087344881F8AA
:1036D00045702968236851F8046B29601D0614D5CC
:1036E000DF0744BF43F0200323601EB9236823F0A3
:1036F000200323601023AFE7236843F020032360F7
:103700007823284884F84530E3E7590648BFB6B225
:10371000E6E71546BBE72B682668181D6169286037
:1037200035061B6801D5196002E07006FBD51980CB
:10373000002315462361BAE72B6800211A1D2A6071
:103740001D686268284600F02FF808B1401B6060D1
:1037500063682361002384F84330A8E72A4649467A
:1037600040462369D0470130ABD023689B0713D470
:10377000E068039B9842B8BF1846A4E7012332468D
:1037800049464046D04701309BD00135E368039954
:103790005B1AAB42F2DCEBE7002504F11906F5E712
:1037A000DB3A0008EC3A0008034610B5C9B20244FF
:1037B0009342184601D1002003E0047801338C4283
:1037C000F6D110BD0A44914200F1FF3300D1704799
:1037D00010B511F8014B914203F8014FF9D110BD1A
:1037E000884210B501EB020402D98442234607D86F
:1037F000431EA14208D011F8012B03F8012FF8E76E
:10380000014602448A4200D110BD13F8014D02F86E
:10381000014DF7E738B50546002940D051F8043C82
:103820000C1F002BB8BFE41800F010F91C4A1368F5
:1038300033B9636014602846BDE8384000F00CB925
:10384000A34208D9206821188B4201BF19685B6820
:1038500009182160EDE71A465B680BB1A342FAD95B
:1038600011685018A0420BD12068014450188342BF
:103870001160E0D118685B68014411605360DAE7B9
:1038800002D90C232B60D6E7206821188B4201BF98
:1038900019685B680918216063605460CBE738BD24
:1038A0005801002070B50E4E0C463168054611B91E
:1038B00000F0BCF830602146284600F0B7F8431C01
:1038C0000AD0C41C24F00304A04207D0211A2846C1
:1038D00000F0ACF8013001D14FF0FF34204670BD4C
:1038E0005C0100202DE9F041CD1C25F003050835D1
:1038F0000C2D38BF0C25002D074601DBA94205D948
:103900000C2300263B603046BDE8F0812E4E00F0CF
:103910009DF833681C4634BB29463846FFF7C2FF82
:10392000431C04464DD134682646002E40D12368FE
:103930003146384604EB030800F078F880453AD168
:10394000216803356D1A25F0030508350C2D38BFA5
:103950000C2538462946FFF7A5FF01302BD02368F8
:103960002B4423600EE02268521B1ED40B2A16D96A
:103970006119A342256018BF5960636808BF3160B0
:1039800062514B60384604F10B0600F065F826F0F2
:103990000706231DF21AB6D09B1BA350B3E762683B
:1039A000A3420CBF32605A60ECE723466468B2E77A
:1039B00034467668B9E70C2338463B6000F04CF893
:1039C000A1E72560DEE700BF580100202DE9F041A6
:1039D000804614460E4621B91146BDE8F041FFF776
:1039E00081BF2AB9FFF716FF25462846BDE8F081BA
:1039F00000F038F88442074602D8B4EB500F12D8D2
:103A000021464046FFF76EFF05460028EDD0BC4238
:103A10002246314628BF3A46FFF7D4FE314640469B
:103A2000FFF7F8FEE1E73546DFE7000038B5002391
:103A3000054D044608462B60FDF772FA431C02D17F
:103A40002B6803B1236038BD60010020014800F0FD
:103A500011B800BF64010020014800F00CB800BF9D
:103A60006401002051F8043C181F002BBCBF0B5808
:103A7000C018704770477047F8B500BFF8BC08BC65
:103A80009E467047F8B500BFF8BC08BC9E4670471C
:103A90006B69726F6F00000074686520616E676CFF
:103AA0006520256400000000000000000000000008
:103AB00001020304060708090203040506070809B2
:103AC0000A0B0C0D0E0F10100102232D302B2000BD
:103AD000686C4C00656667454647003031323334C8
:103AE0003536373839414243444546003031323368
:103AF000343536373839616263646566000000002A
:043B00003501000883
:043B040011010008A3
:103B08000000000000080140020000000008014019
:103B18008000000000080140400000000000000094
:103B28000024F40010000000010000003000002014
:103B3800000000000000000000000000000000007D
:103B4800000000000000000000000000000000006D
:103B5800000000000000000000000000000000005D
:103B6800000000000000000000000000000000004D
:103B7800000000000000000000000000000000003D
:103B8800000000000000000000000000000000002D
:0400000508000F9947
:00000001FF
